{
  "contractName": "SimpleCounter",
  "abi": [
    {
      "constant": true,
      "inputs": [],
      "name": "count",
      "outputs": [
        {
          "name": "",
          "type": "uint256"
        }
      ],
      "payable": false,
      "stateMutability": "view",
      "type": "function"
    },
    {
      "anonymous": false,
      "inputs": [
        {
          "indexed": false,
          "name": "_count",
          "type": "uint256"
        }
      ],
      "name": "AddCount",
      "type": "event"
    },
    {
      "constant": false,
      "inputs": [],
      "name": "addCount",
      "outputs": [],
      "payable": false,
      "stateMutability": "nonpayable",
      "type": "function"
    }
  ],
  "bytecode": "0x608060405260008055348015601357600080fd5b5060d9806100226000396000f3fe6080604052348015600f57600080fd5b506004361060325760003560e01c806306661abd1460375780636cefce6e146053575b600080fd5b603d605b565b6040518082815260200191505060405180910390f35b60596061565b005b60005481565b60008081548092919060010191905055507f55bb6f87162adf7b9872bfc246f99646dafa8d34f1863e07c71cc0d120a123a46000546040518082815260200191505060405180910390a156fea165627a7a72305820602537e2295bfa830989dcb1b64a04a3aad629af660e1e33fa8bbad9207d5f670029",
  "source": "pragma solidity ^0.5.0;\n\ncontract SimpleCounter {\n\n  uint public count = 0;\n\n  event AddCount(uint _count);\n\n  function addCount() public {\n      count++;\n      emit AddCount(count);\n  }\n\n}",
  "sourcePath": "/Users/beacon/lambda/pmgroup/game_testing/contracts/SimpleCounter.sol",
  "compiler": {
    "name": "solc",
    "version": "0.5.8+commit.23d335f2.Emscripten.clang"
  },
  "schemaVersion": "3.0.11",
  "updatedAt": "2019-07-19T15:46:48.137Z",
  "devdoc": {
    "methods": {}
  },
  "userdoc": {
    "methods": {}
  }
}