{
  "contractName": "SimpleCounter",
  "abi": [
    {
      "constant": true,
      "inputs": [],
      "name": "count",
      "outputs": [
        {
          "name": "",
          "type": "uint256"
        }
      ],
      "payable": false,
      "stateMutability": "view",
      "type": "function"
    },
    {
      "anonymous": false,
      "inputs": [
        {
          "indexed": false,
          "name": "_count",
          "type": "uint256"
        }
      ],
      "name": "AddCount",
      "type": "event"
    },
    {
      "constant": false,
      "inputs": [],
      "name": "addCount",
      "outputs": [],
      "payable": false,
      "stateMutability": "nonpayable",
      "type": "function"
    }
  ],
  "bytecode": "0x60806040526000805534801561001457600080fd5b50610108806100246000396000f3006080604052600436106049576000357c0100000000000000000000000000000000000000000000000000000000900463ffffffff16806306661abd14604e5780636cefce6e146076575b600080fd5b348015605957600080fd5b506060608a565b6040518082815260200191505060405180910390f35b348015608157600080fd5b5060886090565b005b60005481565b60008081548092919060010191905055507f55bb6f87162adf7b9872bfc246f99646dafa8d34f1863e07c71cc0d120a123a46000546040518082815260200191505060405180910390a15600a165627a7a72305820310489c6d293530683c6b3a282b7cd126298efa43bb737800a24bcda3ad06f1a0029",
  "source": "pragma solidity >=0.4.21 <0.6.0;\n\ncontract SimpleCounter {\n\n  uint public count = 0;\n\n  event AddCount(uint _count);\n\n  function addCount() public {\n      count++;\n      emit AddCount(count);\n  }\n\n}\n",
  "sourcePath": "/Users/user/frontend/contracts/SimpleCounter.sol",
  "compiler": {
    "name": "solc",
    "version": "0.4.25+commit.59dbf8f1.Emscripten.clang"
  },
  "schemaVersion": "2.0.2",
  "updatedAt": "2019-07-26T05:37:55.659Z"
}